:100000000C9435000C945D000C945D000C945D0024
:100010000C945D000C945D000C945D000C945D00EC
:100020000C945D000C945D000C945D000C945D00DC
:100030000C945D000C945D000C945D000C945D00CC
:100040000C947F010C945D000C94EF010C94C90199
:100050000C945D000C945D000C945D000C945D00AC
:100060000C945D000C945D00880311241FBECFEF3B
:10007000D8E0DEBFCDBF11E0A0E0B1E0E4EEF7E0F4
:1000800002C005900D92A432B107D9F721E0A4E295
:10009000B1E001C01D92A33EB207E1F710E0C5E355
:1000A000D0E004C02197FE010E94EA03C433D107C7
:1000B000C9F70E9421020C94F0030C940000AF9247
:1000C000BF92CF92DF92EF92FF920F931F93CF9345
:1000D000DF936C017B018B01040F151FEB015E01A7
:1000E000AE18BF08C017D10759F06991D601ED913C
:1000F000FC910190F081E02DC6010995892B79F7DB
:10010000C501DF91CF911F910F91FF90EF90DF908C
:10011000CF90BF90AF900895FC01538D448D252F53
:1001200030E0842F90E0821B930B541710F0CF9691
:10013000089501970895FC01918D828D981761F0C3
:10014000A28DAE0FBF2FB11D5D968C91928D9F5FDA
:100150009F73928F90E008958FEF9FEF0895FC01B9
:10016000918D828D981731F0828DE80FF11D858D6C
:1001700090E008958FEF9FEF0895FC01918D228DFF
:10018000892F90E0805C9F4F821B91098F73992784
:10019000089586E491E00E94BD0021E0892B09F4D6
:1001A00020E0822F089580E090E0892B29F00E94C2
:1001B000C90081110C9400000895FC01A48DA80FC2
:1001C000B92FB11DA35ABF4F2C91848D90E0019699
:1001D0008F739927848FA689B7892C93A089B189B9
:1001E0008C91837080648C93938D848D981306C05A
:1001F0000288F389E02D80818F7D80830895EF92BE
:10020000FF920F931F93CF93DF93EC0181E0888FD0
:100210009B8D8C8D98131AC0E889F989808185FFA0
:1002200015C09FB7F894EE89FF896083E889F98942
:1002300080818370806480839FBF81E090E0DF9144
:10024000CF911F910F91FF90EF900895F62E0B8D97
:1002500010E00F5F1F4F0F731127E02E8C8D8E1152
:100260000CC00FB607FCFACFE889F989808185FFB9
:10027000F5CFCE010E94DD00F1CFEB8DEC0FFD2F0D
:10028000F11DE35AFF4FF0829FB7F8940B8FEA8974
:10029000FB8980818062CFCFCF93DF93EC01888D83
:1002A0008823B9F0AA89BB89E889F9898C9185FDF1
:1002B00003C0808186FD0DC00FB607FCF7CF8C917F
:1002C00085FFF2CF808185FFEDCFCE010E94DD005A
:1002D000E9CFDF91CF9108958EBD0DB407FEFDCF1C
:1002E0008EB50895FC0101900020E9F73197AF0128
:1002F000481B590BBC0186E491E00C945F001F92EF
:100300000F920FB60F9211242F933F938F939F93C9
:10031000AF93BF938091420190914301A09144011A
:10032000B09145013091410123E0230F2D3758F55D
:100330000196A11DB11D209341018093420190932C
:100340004301A0934401B093450180913D019091F8
:100350003E01A0913F01B09140010196A11DB11D48
:1003600080933D0190933E01A0933F01B0934001E3
:10037000BF91AF919F918F913F912F910F900FBEA1
:100380000F901F90189526E8230F0296A11DB11D0E
:10039000D2CF1F920F920FB60F9211242F933F933B
:1003A0004F935F936F937F938F939F93AF93BF937D
:1003B000EF93FF9386E491E00E94DD00FF91EF91BF
:1003C000BF91AF919F918F917F916F915F914F916D
:1003D0003F912F910F900FBE0F901F9018951F9275
:1003E0000F920FB60F9211242F938F939F93EF9339
:1003F000FF93E0915601F09157018081E0915C01FB
:10040000F0915D0182FD1BC0908180915F018F5F43
:100410008F7320916001821741F0E0915F01F0E05D
:10042000EA5BFE4F958F80935F01FF91EF919F9163
:100430008F912F910F900FBE0F901F901895808174
:10044000F4CFCF93DF93CDB7DEB7A1970FB6F89473
:10045000DEBF0FBECDBF789484B5826084BD84B505
:10046000816084BD85B5826085BD85B5816085BDAF
:1004700080916E00816080936E0010928100809167
:1004800081008260809381008091810081608093EF
:100490008100809180008160809380008091B10014
:1004A00084608093B1008091B00081608093B0003F
:1004B00080917A00846080937A0080917A008260D3
:1004C00080937A0080917A00816080937A00809195
:1004D0007A00806880937A001092C100E091560102
:1004E000F091570182E08083E0915201F091530135
:1004F0001082E0915401F09155018FEC80831092AD
:100500005E01E0915A01F0915B0186E08083E09109
:100510005801F0915901808180618083E0915801F8
:10052000F0915901808188608083E0915801F091B9
:100530005901808180688083E0915801F0915901D0
:1005400080818F7D80832FEF83ED90E32150804069
:100550009040E1F700C0000084B1866084B929981A
:100560002A9A84B1837C84B984B18C6284B983E58E
:100570008CBD1DBC2A9887E20E946C0180E10E941C
:100580006C012A9A2A9887E20E946C0180E20E94FC
:100590006C012A9AEFEFF1EE24E0E150F0402040A8
:1005A000E1F700C000002A9885E20E946C0187E113
:1005B0000E946C012A9A2A9886E20E946C0186E2C7
:1005C0000E946C012A9A2A9881E30E946C0183E0C0
:1005D0000E946C012A9A109224012A9880E20E94BB
:1005E0006C018FE20E946C012A9A299A2A9880E372
:1005F0000E946C0100E011E0F80181918EBD0DB404
:1006000007FEFDCF81E0E530F807B9F72A9A2A986E
:100610008AE20E946C01F80181918F018EBD0DB4B8
:1006200007FEFDCFF1E005301F07A9F72A9A00E089
:1006300010E0809124018111FCCF2A988FEF0E9455
:100640006C012A9A86FFF5CF2A9881E60E946C01F8
:10065000F82EEAE3F1E081918EBD0DB407FEFDCFE7
:100660008EB5DF0111978C9321E0ED33F20799F7F6
:100670002A9A2A9887E20E946C0180E40E946C0109
:100680002A9AF092390180913A014AE065E271E0DC
:1006900090E00E94B50387E191E00E9472014091D1
:1006A000390150E070E060E019A2CE0181966A0144
:1006B0007B01E1E0CE22DD24EE24FF2476956795D0
:1006C00057954795F0E3CF0EFC01C292CF0141153B
:1006D00051056105710559F7EF2B11F00E94720168
:1006E0008EE191E00E94720185E291E00E94720128
:1006F00080E291E00E9472010115110509F499CF81
:100700000E94C900882309F494CF0E94000091CF71
:10071000E6E4F1E01382128288EE93E0A0E0B0E01C
:1007200084839583A683B78389E091E09183808356
:1007300085EC90E09587848784EC90E097878687A6
:1007400080EC90E0918B808B81EC90E0938B828B9E
:1007500082EC90E0958B848B86EC90E0978B868B77
:10076000118E128E138E148E0895BB274A3031F4E9
:10077000992322F4BDE2909581959F4F0C94C1037B
:10078000BB27FB015527AA27880F991FAA1FA4176B
:1007900010F0A41B83955051B9F7A05DAA3308F05F
:1007A000A95DA193009779F7B111B1931192CB0193
:1007B0000C94DA03DC01FC01672F71917723E1F7D8
:1007C000329704C07C916D9370836291AE17BF071E
:1007D000C8F30895EE0FFF1F0590F491E02D0994E2
:0407E000F894FFCFBB
:1007E400000102030400000000FF005F008C004CC5
:1007F40001BD009B00AF005374617475733A20000F
:040804000D0A0000D9
:00000001FF
